:1000460010C4EA611A03530069006C00690063007A
:100056006F006E0020004C00610062007300100308
:1000660055005300420020004100500049000A0399
:0C00760031003200330034000F80010024
:0A110B00C1010217000102190001E2
:0F10D300EF4E600B7D02DDFEEF1F70F41E80F10B
:0110E20022EB
:09111600D284D285C284C2852274
:09111F00C285C284D285D284226B
:07000300D284D285C28522E0
:081071001211167F3C1210C29F
:0C107900D284D285A2849203C285A20317
:011085002248
:1010C2007E08EF339284D285C285EF25E0FFDEF2FF
:0110D20022FB
:100F9600AC07121071AF051210C2121079AF04120D
:0F0FA60010C212107912111F7F017E000210D3AA
:10108600E4FF7E08D285EF25E0FFA284E433420721
:04109600C285DEF041
:01109A002233
:020F1200AD0729
:100F1400121071AF051210C21210791211167F3D12
:0F0F24001210C212107912108612000312111F40
:010F3300229B
:070FF0007F017E001210D307
:100FF700E4FD7F18120F967D01E4FF120F967D0224
:05100700E4FF020F965A
:100AC90053D9BFD2AF1210E312105B120EB39000CC
:100AD90046E493FE740193FF900048E493FC74018B
:100AE90093FD9007B674FFF0A37400F0A37464F04B
:100AF900A374FFF0A37400F0A37474F090007EE473
:100B0900939007BCF090007FE4939007BDF09000AC
:100B190080E493FB7401939007BECBF0A3EBF07BC9
:100B2900FF7A00794A12061B1210421210AF75B0F3
:100B390004120FF075B005120FF075B006120FF020
:100B490075B008120FF075B009120FF075B01012D8
:100B59000FF075B011120FF075B012120FF080FE80
:0B10F300E4FF7EAB7821E4F608DEFC91
:0110FE0022CF
:1002B900E4F50FF510F511751201F513F514F513A1
:1002C900F514E51264014511700575B0048059E50E
:1002D9001264024511700575B005804CE51264037E
:1002E9004511700575B006803FE51264044511702B
:1002F9000575B0088032E51264054511700575B0C1
:10030900098025E51264064511700575B01080183D
:10031900E51264074511700575B011800BE512648B
:10032900084511700375B01274212510F8A612053D
:1003390012E512700205117F0A7E00120F56051090
:10034900E5107002050F7F0C7E00120FB574212590
:1003590010F8A6180510E5107002050F2421F8A65B
:100369001A0510E5107002050F7F0E7E00120FB5F9
:1003790074212510F8A6180510E5107002050F2440
:1003890021F8A61A0510E5107002050F7F047E00FA
:10039900120FB574212510F8A6180510E510700282
:1003A900050F2421F8A61A0510E5107002050F7F24
:1003B900067E00120FB574212510F8A6180510E560
:1003C900107002050F2421F8A61A0510E510700215
:1003D900050F7F087E00120FB574212510F8A618A5
:1003E9000510E5107002050F2421F8A61A0510E57D
:1003F900107002050FE4FFFE120FB574212510F8E5
:10040900A6180510E5107002050F2421F8A61A0593
:1004190010E5107002050F7F03120F1274212510C9
:10042900F8A6070510E5107002050F7F04120F12D8
:1004390074212510F8A6070510E5107002050F7F35
:1004490005120F1274212510F8A6070510E5107082
:1004590002050F7F06120F1274212510F8A6070551
:1004690010E5107002050F7F07120F127421251075
:10047900F8A6070510E5107002050F7F08120F1284
:1004890074212510F8A6070510E5107002050F7FE5
:1004990009120F12BF06157D027F02120F967F0106
:1004A9007E001210D37D02E4FF120F960514E514A5
:1004B90070020513C39408E513940050030202CB9C
:0104C9002210
:10105B0075A40F75D4F875D53F75E10275E240752F
:06106B00A5FF75A7FF229E
:1010AF00758E08758CE8758A28438901D2B9C2A953
:0310BF00D28C22AE
:03000B0002100CD4
:10100C00750800750900750A00750B01750C0075E3
:0A101C000D00758CE8758A28D201DA
:011026003297
:1010E300C2AEC2BE75A17075F80175A203C2FF221C
:10102700AB07AA067C017D001208A98FA330FFFD3C
:0A103700C2FFEBF5A330FFFDC2FF7E
:01104100228C
:100F5600C2FF8FA330FFFDC2FFE4F5A330FFFDC241
:0F0F6600FFE4FFFE0FBF00010EEF64054E70F5B4
:010F75002259
:100FB5008FA330FFFDC2FFAFA37517008F18E4F5AF
:0D0FC500A330FFFDC2FFAFA37519008F1A06
:010FD20022FC
:100DE7007F087EBE121027E4FFFEE4F583F582A399
:100DF700E582B4D0FAE583B407F50FBF00010EEF23
:100E070064C84E70E57F027EBE121027E4FEFFE441
:100E1700F583F582A3E582B4D0FAE583B407F50F2D
:0A0E2700BF00010EEF64C84E70E535
:010E3100229E
:03008300020BF578
:100BF500C0E0C0F0C083C082C0D075D000C000C0C6
:0D0C050001C002C003C004C005C006C00746
:100C12001200358F0EE50E30E4121210F37B007ACB
:100C22000079217DAB7C00120752D2A9E50E30E19A
:100C3200153001FDC2011202B97B007A0079217DD3
:0E0C4200AB7C00120752E50E30E60312105B89
:100C5000D007D006D005D004D003D002D001D000F8
:0B0C6000D0D0D082D083D0F0D0E032A2
:100E79001201100100000040C4100000000001022E
:100E890003010902200001010080FA09040000029F
:100E99000000000007050202400000070582024029
:0A0EA900000004030904010000002A
:10061B009007AFEEF0A3EFF09007B3EBF0A3EAF087
:10062B00A3E9F0E4900791F0900791E0FF900E7929
:10063B0093FE74402FF582E43407F583EEF09007B8
:10064B0091E004F0E0B412E0E4900791F090079190
:10065B00E0FF900E8B93FE74522FF582E43407F576
:10066B0083EEF0900791E004F0E0B420E09007AF48
:10067B00E0FEA3E0900748F0EEA3F0A3EDF0ECA3AF
:10068B00F090077274FFF0A3740EF0A374ABF090AC
:10069B0007B3E0F9A3E0FAA3E0900775C9F0A3EA6A
:1006AB00F0A3E9F09007B6E0F9A3E0FAA3E0900716
:1006BB0078C9F0A3EAF0A3E9F09007B9E0F9A3E059
:1006CB00FAA3E090077BC9F0A3EAF0A3E9F0900747
:1006DB00BCE0FFC394FA500590075AEFF09007BDAA
:1006EB00E0900759F09007BEE0FEA3E090074CF0B6
:1006FB00EEA3F0E59620E7FB759601759708E59656
:10070B0020E7FB75960775970FE59620E7FB759627
:10071B000975970EE59620E7FB75960B7597077590
:10072B00D7E01210FFE4900793F0900792F0900738
:10073B0094F0900786F043E602D2AFE59620E7FBF4
:07074B00759601759701226C
:10000E009007867402F0E59620E7FB7596017597CA
:10001E0001E490078EF0A37403F0A3F0E49007932D
:07002E00F090079204F0229C
:10008600E59620E7FB75960EE4F597E59620E7FBE7
:10009600759691E59620E7FB90079EE597F0E0FFC1
:1000A60030E210E59620E7FB759611E4F597900788
:1000B6008EF022EF30E410E59620E7FB7596117579
:1000C6009780E490078EF090078EE060030201B7F8
:1000D60090079EE020E0030201B77596204396C084
:1000E600E4900791F0E59620E7FB900791E0247EE7
:1000F600F582E43407F583E597F0900791E004F084
:10010600E0B407E1E59620E7FBE4F596900791E079
:10011600247EF582E43407F583E597F0900781E0C5
:10012600FE900780E07C002400FFEC3E900795F0EF
:10013600A3EFF0900785E0FE900784E02400FFEC33
:100146003E900797F0A3EFF090077FE0B40C0050C5
:100156005D90015EF8282873020182020187020180
:100166008C0201910201B402019602019B0201B4C4
:100176000201A00201A50201AA0201AF120C6B80C6
:1001860030120D38802B12094A8026120D908021DC
:10019600120F76801C120A178017120E3280121266
:1001A6000CDE800D120EEB800812109B8003120FDE
:1001B600D390078EE0640160030202B890079E7434
:1001C60002F0C390078DE0944090078CE0940040C5
:1001D60061E59620E7FB759620E4900791F090077D
:1001E60091E0FFC394405022900787E0FBA3E0FA1A
:1001F600A3E0F98F8275830012087CF597E59620B7
:10020600E7FB900791E004F080D4900788E475F04E
:10021600401208DF90078DE024C0F090078CE03490
:10022600FFF090078BE02440F090078AE03400F05E
:100236008052E59620E7FB759620E4900791F090B2
:100246000791E0FFD390078DE09F90078CE0940024
:100256004026900787E0FBA3E0FAA3E0F990079118
:10026600E0F58275830012087CF597E59620E7FB9A
:10027600900791E004F080C790079EE04408F0E400
:1002860090078EF0900797E0FEA3E0FF90078AE0C4
:10029600B50611A3E0B5070C90079EE04408F0E40C
:1002A60090078EF0E59620E7FB75961190079EE085
:0302B600F5972297
:100FD300E59620E7FB75960EE4F597E59620E7FB8B
:0D0FE30075961175972090078E7404F0220A
:100C6B0090077EE0247F60071460062402704880A2
:100C7B002D90078FE0B40309900782E0B402028045
:100C8B000E900790E0B40316900782E0B4820F90A9
:100C9B00078774FFF0A3740EF0A374AF800D900759
:100CAB008774FFF0A3740EF0A374B1F090078CE47B
:100CBB00F0A37402F08003120FD390078EE064044C
:100CCB00601012109B90078E7401F0E490078AF06D
:030CDB00A3F02261
:100D3800900780E07041900782E0B4021DE596209C
:100D4800E7FB75960E759702E59620E7FB759614F6
:100D5800759780E490078FF08020E59620E7FB7573
:100D6800960E759702E59620E7FB759611759740E4
:100D7800E4900790F08003120FD3E59620E7FB7507
:080D8800960EE4F59702109BA2
:10094A00900796E020E0030209E0900794E030E087
:10095A000854FEF04402F08007900794E054FDF03A
:10096A00E59620E7FB75960E759702E59620E7FB5C
:10097A00759614759710E59620E7FB75961175978D
:10098A0008E59620E7FB759694E59620E7FB900725
:10099A009DE597F0E020E4E9E59620E7FB759614DB
:1009AA00759710E59620E7FB759691E59620E7FB8B
:1009BA0090079DE597F0E020E3E9E59620E7FB75CF
:1009CA0096117597089007927408F0900794E0FFC3
:1009DA0030E1034401F0900795E0FCA3E0FD30E12B
:1009EA000D9007867406F0900792E04410F0ED30FF
:1009FA00E20D9007867404F0900792E04420F0E537
:0D0A0A009620E7FB75960EE4F59702109B11
:100D9000900780E07040900782E0B4021BE5962047
:100DA000E7FB75960E759702E59620E7FB7596149E
:100DB00075972090078F8019E59620E7FB75960EB2
:100DC000759702E59620E7FB7596117597109007C9
:100DD000907403F08003120FD3E59620E7FB75961D
:070DE0000EE4F59702109BE1
:100F7600E59620E7FBE4F596900780E0FFF597EF0E
:100F860090078660057403F080037402F002109BDC
:100A1700900781E024FE601B14603B2402706990FC
:100A270007877401F0A37407F0A37440F0900740A0
:100A3700E0804A9007877401F0A37407F0A374520B
:100A4700F0900755E0FE900754E07C002400FFEC8F
:100A57003E90078C802C900780E075F003A42472E9
:100A6700F582E43407F583E0FBA3E0FAA3E0F9900D
:100A77000787EBF0A3EAF0A3E9F0120863FF9007FA
:100A87008CE4F0A3EFF08003120FD390078CE0FE05
:100A9700A3E0FF900797E0FCA3E0FDC39FEC9E5007
:100AA7000890078CECF0A3EDF090078EE0640460EB
:100AB7001012109B90078E7401F0E490078AF0A340
:020AC700F0221B
:100E3200900786E0FFB40414A374FFF0A3740EF0CD
:100E4200A374AFF090078CE4F0A304F0EFB40316A0
:100E520090078774FFF0A3740EF0A374B1F09007AB
:100E62008CE4F0A304F012109B90078E7401F0E45E
:070E720090078AF0A3F022B3
:100CDE00900780E0D394004042900792E04440F0A9
:100CEE009007867404F0E490078FF0A3F0E5962049
:100CFE00E7FB75960E759702E59620E7FB75961243
:100D0E00759784E59620E7FB759615759780E596A1
:100D1E0020E7FB75960EE4F597800C90078674031A
:0A0D2E00F090078FF0A3F002109B75
:100EEB0090078774FFF0A3740EF0A374B1F0900712
:100EFB008CE4F0A304F012109B90078E7401F0E4C5
:070F0B0090078AF0A3F02219
:10109B0090078EE06404600BE59620E7FB759611D4
:0410AB0075974022D3
:030043000204CAEA
:1004CA00C0E0C0F0C083C082C0D075D000C000C0F8
:1004DA0001C002C003C004C005C006C0079007A13E
:1004EA00E596F0E59620E7FB75968EE59620E7FB04
:1004FA009007A2E597F0E59620E7FB759686E596C4
:10050A0020E7FB900799E597F0E030E30BE59620AA
:10051A00E7FB75960B759707900799E030E203128F
:10052A00000E900799E030E014900786E0FF64041B
:10053A006004EFB40607900792E04480F0E5962045
:10054A00E7FB759682E59620E7FB900799E597F019
:10055A00E030E003120086900799E030E22AE5963F
:10056A0020E7FB75960E759702E59620E7FB7596D0
:10057A0091E59620E7FB90079AE597F0E05403701F
:10058A0007900792E04402F0E59620E7FB7596840F
:10059A00E59620E7FB900799E597F0E030E229E538
:1005AA009620E7FB75960E759702E59620E7FB7590
:1005BA009694E59620E7FB90079AE597F0E030E0FD
:1005CA0007900792E04404F0E59620E7FB75960E43
:1005DA009007A2E0F597E59620E7FB9007A1E5963C
:1005EA00F0E59620E7FB900794E030E00990079247
:1005FA00E06003120F34D007D006D005D004D00330
:10060A00D002D001D000D0D0D082D083D0F0D0E0B8
:01061A0032AD
:100EB300E5B964E0602E53A90FC0A943B280E5A948
:100EC3005407D394014003E4F5A9E4F5B943B98089
:100ED300E4D5E0FD43B9C0E5B930E5FBD0E0B402A9
:080EE3000343A90253A90F22E9
:0E003500900792E0FFE4F022900792E0FF2295
:10075200900786E0B4060DED4C6009D3ED9400ECF1
:1007620094104004E4FEFF2253E6FDE490079FF05C
:10077200A3F090079BF089828A83C083C08290078E
:100782009BE030E003020853E59620E7FB75960EE6
:10079200759702E59620E7FB759691E59620E7FBB3
:1007A20090079BE597F0E030E020E59620E7FB75A7
:1007B200960EE4F597E59620E7FB759691E596206F
:1007C200E7FB90079BE597F080B4C3ED9440EC946F
:1007D200009007A0E0401B2440F090079FE0340007
:1007E200F074C02DFD74FF3CFCE490079BF0784050
:1007F20080132DF090079FE03CF090079B7401F06E
:10080200A805E4FCFDE59620E7FB759622D082D090
:1008120083E8602BEB601130E71AE59620E7FBE4F2
:1008220093F597A3D8F48017E59620E7FB879709FD
:10083200D8F6800BE59620E7FBE0F597A3D8F5C044
:1008420083C082E59620E7FB759611759701020732
:1008520080D082D08343E60290079FE0FEA3E0FFB0
:010862002273
:10104200900794E04401F0900792E0600BE596204F
:09105200E7FB75960B75970F2260
:0C10FF00E59620E7FB75960F7597892297
:100F3400D007D007D007D006D005D004D003D00204
:100F4400D001D000D0D0D082D083D0F0D0E0020045
:020F54008322F6
:03000000020B6987
:0C0B6900787FE4F6D8FD7581CB020BB05C
:10086300BB010689828A83E0225002E722BBFE0293
:09087300E32289828A83E49322C6
:10087C00BB010CE58229F582E5833AF583E0225031
:10088C0006E92582F8E622BBFE06E92582F8E2227B
:0D089C00E58229F582E5833AF583E4932295
:1008A900C2D5EC30E709B2D5E4C39DFDE49CFCEE6A
:1008B90030E715B2D5E4C39FFFE49EFE1208F5C3E5
:1008C900E49DFDE49CFC80031208F530D507C3E4E0
:0608D9009FFFE49EFE22D9
:1008DF00C5F0F8A3E028F0C5F0F8E58215827002A4
:0608EF001583E038F02241
:100B7500020AC9E493A3F8E493A34003F68001F2C3
:100B850008DFF48029E493A3F85407240CC8C33381
:100B9500C4540F4420C8834004F456800146F6DF50
:100BA500E4800B010204081020408090110BE47EC4
:100BB500019360BCA3FF543F30E509541FFEE49345
:100BC500A360010ECF54C025E060A840B8E493A30C
:100BD500FAE493A3F8E493A3C8C582C8CAC583CA37
:100BE500F0A3C8C582C8CAC583CADFE9DEE780BEEF
:0111150000D9
:1008F500BC000BBE0029EF8DF084FFADF022E4CCE7
:10090500F875F008EF2FFFEE33FEEC33FCEE9DECAF
:10091500984005FCEE9DFE0FD5F0E9E4CEFD22EDF5
:10092500F8F5F0EE8420D21CFEADF075F008EF2F3F
:10093500FFED33FD4007985006D5F0F222C398FD30
:050945000FD5F0EA22CD
:00000001FF
